:030000000208F5FE
:0C08F500787FE4F6D8FD75813502093CDF
:0D0C5D00C2918B807F01120C6AD2927F0140
:100C6A007E64AD071FED6008AD061EED60F480F8E6
:010C7A002257
:100CC100C290D291120C66AC80C2927F01120C6A62
:020CD100AF046E
:010CD30022FE
:0C0D3A00120CC1EF20E7F97F01020C6AE7
:0D0D2000AB07120D3AC290120C5DC2922278
:0D0D2D00AB07120D3AD290120C5DC292225B
:100C94007F38120D207F0C120D207F06120D207F4D
:070CA40001120D20C2922293
:100BF0008B238A248925AB23AA24A925120C7B6088
:100C0000130525E5257002052414F9120C7BFF124B
:050C10000D2D80E22221
:050D6F007F01020D20D0
:100981004C616D703A416C77617973204F6E210033
:100991004C616D703A4F6E2120004C616D703A4F81
:1009A100666621004C616D703A416C776179732004
:1009B1004F6666210054686520696E6672617265D2
:1009C100643A4F4646210054686520696E6672613B
:1009D1007265643A4F6E2100426565703A4F7065E9
:1009E1006E2100426565703A636C6F736521005733
:1009F100656C636F6D6520546F00496E74656C6C36
:0B0A01006967656E7420486F6D65002A
:100C1500023200000226000002280000012B00011C
:100C25003100013500012D00012F00013000013494
:040C350000012C008E
:100CD4007E6EAD071FED6008AD061EED60F480F872
:010CE40022ED
:0E0D0400E52F7009C2A67F05120CD4D2A622DC
:0E0D120030A10AC2A1E4F52D753501F52E229F
:090D5D0020A105D2A1E4F5352224
:090D660030A305C2A3752B012284
:100CE500E52D700B752D0120A105F52E120D5D2248
:0F0CF500E52DB40109E4F52D752E01120D042231
:040D740075E72022DD
:0C0D4600E52F7004752F0122E4F52F2228
:03000300020BCA23
:100BCA00C0E0C0D075D000C005C006C007C2A67F6D
:100BDA001E120CD4D2A67F1E120CD4D007D006D077
:060BEA0005D0D0D0E0327E
:03001300020AD30B
:100AD300C0E0C0D075D000C005C006C0077F1412A7
:100AE3000CD4209412E52C7008120D12752C018081
:100AF30006120D5D752C00209503120D66209603DA
:100B0300753401209703120D74120D04D007D0061B
:070B1300D005D0D0D0E03284
:03000B00020A0CDA
:100A0C00C0E0C0D0758C3C758AB0E52B601C0533FA
:100A1C00E53370020532D3942CE5329401400BD2AD
:100A2C00A3753200753300752B00E534601A052967
:100A3C00E52970020528C394C8E52894004009757F
:100A4C003400752800752900E52EB4012C0527E526
:100A5C002770020526C39428E5269400401BD2A1DA
:100A6C00752600752700752E00752A0030A40775B1
:0E0A7C002B01C2A38003752B00D0D0D0E03236
:100CAB00120C7B6010F5993099FDC299740129F9EA
:060CBB00E43AFA80EB228E
:10080000750BFF750C09750D81750EFF750F097558
:1008100010917511FF75120975139B7514FF7515ED
:10082000097516A57517FF7518097519B6751AFF9C
:10083000751B09751CC8751DFF751E09751FD975B7
:1008400020FF7521097522E47F01120D20E535B4E2
:100850000117AB0BAA0CA90D120CAB7F80120D2057
:10086000AB0BAA0CA90D120BF0E535701A20A117DD
:10087000AB0EAA0FA910120CAB7F80120D20AB0E8D
:10088000AA0FA910120BF030A11BE52D7017AB11A8
:10089000AA12A913120CAB7F80120D20AB11AA1261
:1008A000A913120BF0E52DB40117AB14AA15A91664
:1008B000120CAB7F80120D20AB14AA15A916120BD7
:1008C000F0E52F7016AB1DAA1EA91F120CAB7FC03E
:1008D000120D20AB1DAA1EA91F8014AB20AA21A9AE
:1008E00022120CAB7FC0120D20AB20AA21A922122C
:0508F0000BF0020D04F5
:100B1A00EF249F601B14601D14601F24FD602014C5
:100B2A00602224F5602324FC602424FE70268021A0
:100B3A00120D12801C120D5D8017120D66801212A2
:100B4A000CE5800D120CF58008120D748003120D4D
:050B5A00461208002214
:03002300020B5F6E
:100B5F00C0E0C0F0C083C082C0D075D000C000C05C
:0D0B6F0001C002C003C004C005C006C007DD
:0A0B7C00309807AF99120B1AC298C7
:100B8600D007D006D005D004D003D002D001D000C3
:0B0B9600D0D0D082D083D0F0D0E0326D
:100BA100E5317024E535B40103C2A12220A00AE594
:100BB1002D7002C2A1752A0122E52A7003D2A12259
:090BC100E52AB40103752E01229E
:100C3A0020A20EC2A5E52BB40103E4F52BC2A380C2
:100C4A0008D2A5E52B7002D2A3E5346003C2932231
:030C5A00D2932210
:100A8A00758901438920758C3C758AB0758DFD7511
:100A9A008BFDD2AFD2A9D2A8C288D2AAD28AD28CCE
:100AAA00759850E4F587D28ED2AC120C947F8212DC
:100ABA000D207BFF7A0979F0120BF07FC0120D200E
:090ACA007BFF7A0979FB020BF0B5
:0B0D5200120A8A120C3A120BA180F862
:10090100020D52E493A3F8E493A34003F68001F2AD
:1009110008DFF48029E493A3F85407240CC8C333F7
:10092100C4540F4420C8834004F456800146F6DFC6
:10093100E4800B0102040810204080900C15E47E35
:10094100019360BCA3FF543F30E509541FFEE493BB
:10095100A360010ECF54C025E060A840B8E493A382
:10096100FAE493A3F8E493A3C8C582C8CAC583CAAD
:10097100F0A3C8C582C8CAC583CADFE9DEE780BE65
:010C390000BA
:100C7B00BB010689828A83E0225002E722BBFE0277
:090C8B00E32289828A83E49322AA
:00000001FF
